:100000000C945C000C946E000C946E000C946E00CA
:100010000C946E000C946E000C946E000C946E00A8
:100020000C946E000C946E000C946E000C946E0098
:100030000C946E000C946E000C946E000C946E0088
:100040000C94A2020C946E000C946E000C946E0042
:100050000C946E000C946E000C946E000C946E0068
:100060000C946E000C946E00000000002400270029
:100070002A0000000000250028002B0004040404CE
:100080000404040402020202020203030303030342
:10009000010204081020408001020408102001021F
:1000A00004081020000000080002010000030407FB
:1000B000000000000000000011241FBECFEFD8E0B8
:1000C000DEBFCDBF21E0A0E0B1E001C01D92A930AC
:1000D000B207E1F70E94EC020C9493040C94000028
:1000E00090E0FC01EC55FF4F2491FC01E057FF4FDD
:1000F0003491FC01E458FF4FE491EE2309F43CC035
:10010000222339F1233091F038F42130A9F0223044
:1001100001F584B58F7D12C0273091F02830A1F011
:100120002430B9F4809180008F7D03C080918000DD
:100130008F77809380000DC084B58F7784BD09C010
:100140008091B0008F7703C08091B0008F7D809345
:10015000B000F0E0EE0FFF1FEE58FF4FA591B491F5
:100160009FB7F894611104C08C913095382302C078
:10017000EC913E2B3C939FBF08953FB7F89480913C
:10018000050190910601A0910701B091080126B5E3
:10019000A89B05C02F3F19F00196A11DB11D3FBFBF
:1001A000BA2FA92F982F8827820F911DA11DB11D4D
:1001B000BC01CD0142E0660F771F881F991F4A9549
:1001C000D1F708958F929F92AF92BF92CF92DF9214
:1001D000EF92FF920E94BD004B015C0184EFC82E9C
:1001E000DD24D394E12CF12C0E94BD00DC01CB0175
:1001F00088199909AA09BB09883E9340A105B10550
:1002000098F321E0C21AD108E108F10888EE880EBF
:1002100083E0981EA11CB11CC114D104E104F104B7
:1002200019F7FF90EF90DF90CF90BF90AF909F9025
:100230008F90089561E086E00E9470000E94E200C5
:1002400060E086E00E9470000C94E20061E080E0D3
:100250000E94700061E081E00E94700061E082E035
:100260000E94700061E085E00E94700061E083E020
:100270000E94700061E086E00E9470000E94E2002F
:1002800060E080E00E94700060E081E00E94700009
:1002900060E082E00E94700060E085E00E947000F3
:1002A00060E083E00E94700060E086E00E947000E1
:1002B0000C94E20061E080E00E94700061E081E067
:1002C0000E94700061E082E00E94700061E085E0C1
:1002D0000E94700061E084E00E94700061E083E0B1
:1002E0000E94700061E086E00E9470000E94E200BF
:1002F00060E080E00E94700060E081E00E94700099
:1003000060E082E00E94700060E085E00E94700082
:1003100060E084E00E94700060E083E00E94700072
:1003200060E086E00E9470000C94E20061E080E0F2
:100330000E94700061E081E00E94700061E082E054
:100340000E9470000E94E20060E080E00E94700065
:1003500060E081E00E94700060E082E00E94700036
:100360000C94E20061E080E00E94700061E082E0B5
:100370000E94700061E085E00E94700061E084E00E
:100380000E94700061E083E00E94700061E086E0FE
:100390000E9470000E94E20060E080E00E94700015
:1003A00060E082E00E94700060E085E00E947000E2
:1003B00060E084E00E94700060E083E00E947000D2
:1003C00060E086E00E9470000C94E20061E080E052
:1003D0000E94700061E085E00E94700061E082E0B0
:1003E0000E94700061E083E00E94700061E086E09E
:1003F0000E9470000E94E20060E080E00E947000B5
:1004000060E085E00E94700060E082E00E94700081
:1004100060E083E00E94700060E086E00E9470006F
:100420000C94E20061E085E00E94700061E086E0EB
:100430000E94700061E081E00E94700061E082E053
:100440000E9470000E94E20060E085E00E9470005F
:1004500060E086E00E94700060E081E00E94700031
:1004600060E082E00E9470000C94E20061E080E0B5
:100470000E94700061E081E00E94700061E082E013
:100480000E94700061E083E00E94700061E086E0FD
:100490000E9470000E94E20060E080E00E94700014
:1004A00060E081E00E94700060E082E00E947000E5
:1004B00060E083E00E94700060E086E00E947000CF
:1004C0000C94E20061E080E00E94700061E081E055
:1004D0000E94700061E086E00E94700061E084E0AC
:1004E0000E94700061E083E00E9470000E94E200C0
:1004F00060E080E00E94700060E081E00E94700097
:1005000060E086E00E94700060E084E00E9470007D
:1005100060E083E00E9470000C94E20061E081E002
:100520000E94700061E082E00E9470000E94E20080
:1005300060E081E00E94700060E082E00E94700054
:100540000C94E2001F920F920FB60F9211242F937A
:100550003F938F939F93AF93BF93809101019091AD
:100560000201A0910301B09104013091000123E048
:10057000230F2D3720F40196A11DB11D05C026E8DB
:10058000230F0296A11DB11D20930001809301014C
:1005900090930201A0930301B0930401809105019F
:1005A00090910601A0910701B09108010196A11D4B
:1005B000B11D8093050190930601A0930701B093AC
:1005C0000801BF91AF919F918F913F912F910F9013
:1005D0000FBE0F901F901895789484B5826084BDEB
:1005E00084B5816084BD85B5826085BD85B5816037
:1005F00085BD80916E00816080936E0010928100B5
:10060000809181008260809381008091810081606F
:100610008093810080918000816080938000809130
:10062000B10084608093B1008091B00081608093BC
:10063000B00080917A00846080937A0080917A0083
:10064000826080937A0080917A00816080937A0042
:1006500080917A00806880937A001092C10021E036
:1006600030E0F901E057FF4F4491F901E458FF4FA2
:100670008491882399F090E0880F991FFC01E85934
:10068000FF4FA591B491FC01EE58FF4F85919491D5
:100690008FB7F894EC91E42BEC938FBF2F5F3F4F13
:1006A00028303105F1F6C0E0D0E061E080E00E9442
:1006B000700061E085E00E94700061E084E00E94CB
:1006C000700061E086E00E9470000E94E20060E03D
:1006D00080E00E94700060E085E00E94700060E0B1
:1006E00084E00E94700060E086E00E9470000E943A
:1006F000E20061E085E00E94700061E084E00E9419
:10070000700061E083E00E9470000E94E20060E0FF
:1007100085E00E94700060E084E00E94700060E06C
:1007200083E00E9470000E94E20061E080E00E948D
:10073000700061E081E00E94700061E082E00E9450
:10074000700061E085E00E94700061E084E00E943A
:10075000700061E086E00E9470000E94E20060E0AC
:1007600080E00E94700060E081E00E94700060E024
:1007700082E00E94700060E085E00E94700060E00E
:1007800084E00E94700060E086E00E9470000E9499
:10079000E2000E94260161E080E00E94700061E0BA
:1007A00085E00E94700061E084E00E94700061E0DA
:1007B00083E00E9470000E94E20060E080E00E94FE
:1007C000700060E085E00E94700060E084E00E94BC
:1007D000700060E083E00E9470000E94E2000E94CE
:1007E00036020E9496010E948E020E945A010E94C7
:1007F00012020E9462020E948E020E94E6010E9482
:100800001A010E9412020E9426010E94E6010E9423
:100810008E020E941A010E9412020E9496010E94FA
:10082000B2010E9412020E941A010E9426010E9437
:10083000B2010E9496010E945A010E941A010E9470
:10084000B20161E080E00E94700061E081E00E94FE
:10085000700061E082E00E94700061E085E00E942B
:10086000700061E084E00E94700061E083E00E941B
:1008700070000E94E20060E080E00E94700060E092
:1008800081E00E94700060E082E00E94700060E001
:1008900085E00E94700060E084E00E94700060E0EB
:1008A00083E00E9470000E94E2000E9462020E94A7
:1008B00026010E948E020E94E6010E9436020E94DA
:1008C0008E020E94B2010E94E6010E9426010E944F
:1008D000B20161E080E00E94700061E081E00E946E
:1008E000700061E082E00E94700061E083E00E949D
:1008F00070000E94E20060E080E00E94700060E012
:1009000081E00E94700060E082E00E94700060E080
:1009100083E00E9470000E94E200209709F4C5CE97
:0A0920000E940000C2CEF894FFCF41
:00000001FF
